{
  "contractName": "MetaCoin",
  "abi": [
    {
      "inputs": [],
      "payable": false,
      "stateMutability": "nonpayable",
      "type": "constructor"
    },
    {
      "constant": false,
      "inputs": [
        {
          "name": "receiver",
          "type": "address"
        },
        {
          "name": "amount",
          "type": "uint256"
        }
      ],
      "name": "sendCoin",
      "outputs": [
        {
          "name": "",
          "type": "bool"
        }
      ],
      "payable": false,
      "stateMutability": "nonpayable",
      "type": "function"
    },
    {
      "constant": true,
      "inputs": [
        {
          "name": "addr",
          "type": "address"
        }
      ],
      "name": "getBalance",
      "outputs": [
        {
          "name": "",
          "type": "uint256"
        }
      ],
      "payable": false,
      "stateMutability": "view",
      "type": "function"
    }
  ],
  "bytecode": "0x608060405234801561001057600080fd5b50336000908152602081905260409020612710905561018a806100346000396000f30060806040526004361061004b5763ffffffff7c010000000000000000000000000000000000000000000000000000000060003504166390b98a118114610050578063f8b2cb4f14610095575b600080fd5b34801561005c57600080fd5b5061008173ffffffffffffffffffffffffffffffffffffffff600435166024356100d5565b604080519115158252519081900360200190f35b3480156100a157600080fd5b506100c373ffffffffffffffffffffffffffffffffffffffff60043516610136565b60408051918252519081900360200190f35b336000908152602081905260408120548211156100f457506000610130565b50336000908152602081905260408082208054849003905573ffffffffffffffffffffffffffffffffffffffff84168252902080548201905560015b92915050565b73ffffffffffffffffffffffffffffffffffffffff16600090815260208190526040902054905600a165627a7a723058206cd9bc7ea125e91c8dedf1af93a8e68d0249ba583e2b81bf53384d4131bf29700029",
  "source": "pragma solidity ^0.4.18;\n\n// This is just a simple example of a coin-like contract.\n// It is not standards compatible and cannot be expected to talk to other\n// coin/token contracts. If you want to create a standards-compliant\n// token, see: https://github.com/ConsenSys/Tokens. Cheers!\n\n// Slightly modified for 0.4.18 Solidity style. Removed the library for simplicity.\n\ncontract MetaCoin {\n\tmapping (address => uint) balances;\n\n\tfunction MetaCoin() public {\n\t\tbalances[msg.sender] = 10000;\n\t}\n\n\tfunction sendCoin(address receiver, uint amount)\n\t    public\n\t    returns (bool)\n    {\n\t\tif (balances[msg.sender] < amount) {\n            return false;\n        }\n\t\tbalances[msg.sender] -= amount;\n\t\tbalances[receiver] += amount;\n\t\treturn true;\n\t}\n\n\tfunction getBalance(address addr)\n\t    public\n\t    view\n\t    returns (uint)\n    {\n  \t    return balances[addr];\n\t}\n}\n",
  "sourcePath": "/home/dev/Загрузки/presentation/sypply-chain-ts/contracts/MetaCoin.sol",
  "compiler": {
    "name": "solc",
    "version": "0.4.24+commit.e67f0147.Emscripten.clang"
  },
  "schemaVersion": "2.0.1",
  "updatedAt": "2018-10-19T14:22:48.915Z"
}